{
	"data": {
		"bytecode": {
			"linkReferences": {},
			"object": "608060405234801561001057600080fd5b50611188806100206000396000f3fe60806040526004361061004a5760003560e01c80630374ab0b1461004f5780630b79143014610078578063298ec208146100ba578063dae7a13c146100d6578063f086a09b14610113575b600080fd5b34801561005b57600080fd5b5061007660048036038101906100719190610901565b61013c565b005b34801561008457600080fd5b5061009f600480360381019061009a9190610984565b6102c5565b6040516100b196959493929190610b6d565b60405180910390f35b6100d460048036038101906100cf91906109b1565b6103a9565b005b3480156100e257600080fd5b506100fd60048036038101906100f891906108c1565b610548565b60405161010a9190610c95565b60405180910390f35b34801561011f57600080fd5b5061013a600480360381019061013591906109f1565b61056d565b005b42831161017e576040517f08c379a000000000000000000000000000000000000000000000000000000000815260040161017590610bf5565b60405180910390fd5b600081116101c1576040517f08c379a00000000000000000000000000000000000000000000000000000000081526004016101b890610bd5565b60405180910390fd5b6040518060c001604052803373ffffffffffffffffffffffffffffffffffffffff16815260200185815260200184815260200183815260200182815260200182815250600080600254815260200190815260200160002060008201518160000160006101000a81548173ffffffffffffffffffffffffffffffffffffffff021916908373ffffffffffffffffffffffffffffffffffffffff160217905550602082015181600101908051906020019061027b929190610784565b5060408201518160020155606082015181600301556080820151816004015560a08201518160050155905050600260008154809291906102ba90610ee7565b919050555050505050565b60006020528060005260406000206000915090508060000160009054906101000a900473ffffffffffffffffffffffffffffffffffffffff169080600101805461030e90610e84565b80601f016020809104026020016040519081016040528092919081815260200182805461033a90610e84565b80156103875780601f1061035c57610100808354040283529160200191610387565b820191906000526020600020905b81548152906001019060200180831161036a57829003601f168201915b5050505050908060020154908060030154908060040154908060050154905086565b6000806000848152602001908152602001600020600201541415610402576040517f08c379a00000000000000000000000000000000000000000000000000000000081526004016103f990610c55565b60405180910390fd5b4260008084815260200190815260200160002060020154101561045a576040517f08c379a000000000000000000000000000000000000000000000000000000000815260040161045190610c75565b60405180910390fd5b600080600084815260200190815260200160002090508181600301546104809190610d78565b34146104c1576040517f08c379a00000000000000000000000000000000000000000000000000000000081526004016104b890610c35565b60405180910390fd5b818160050160008282546104d59190610dd2565b9250508190555081600160003373ffffffffffffffffffffffffffffffffffffffff1673ffffffffffffffffffffffffffffffffffffffff1681526020019081526020016000206000858152602001908152602001600020600082825461053c9190610d22565b92505081905550505050565b6001602052816000526040600020602052806000526040600020600091509150505481565b60008060008581526020019081526020016000206002015414156105c6576040517f08c379a00000000000000000000000000000000000000000000000000000000081526004016105bd90610c55565b60405180910390fd5b4260008085815260200190815260200160002060020154101561061e576040517f08c379a000000000000000000000000000000000000000000000000000000000815260040161061590610c75565b60405180910390fd5b81600160003373ffffffffffffffffffffffffffffffffffffffff1673ffffffffffffffffffffffffffffffffffffffff16815260200190815260200160002060008581526020019081526020016000205410156106b1576040517f08c379a00000000000000000000000000000000000000000000000000000000081526004016106a890610c15565b60405180910390fd5b81600160003373ffffffffffffffffffffffffffffffffffffffff1673ffffffffffffffffffffffffffffffffffffffff168152602001908152602001600020600085815260200190815260200160002060008282546107119190610dd2565b9250508190555081600160008373ffffffffffffffffffffffffffffffffffffffff1673ffffffffffffffffffffffffffffffffffffffff168152602001908152602001600020600085815260200190815260200160002060008282546107789190610d22565b92505081905550505050565b82805461079090610e84565b90600052602060002090601f0160209004810192826107b257600085556107f9565b82601f106107cb57805160ff19168380011785556107f9565b828001600101855582156107f9579182015b828111156107f85782518255916020019190600101906107dd565b5b509050610806919061080a565b5090565b5b8082111561082357600081600090555060010161080b565b5090565b600061083a61083584610cd5565b610cb0565b90508281526020810184848401111561085657610855610fc2565b5b610861848285610e42565b509392505050565b60008135905061087881611124565b92915050565b600082601f83011261089357610892610fbd565b5b81356108a3848260208601610827565b91505092915050565b6000813590506108bb8161113b565b92915050565b600080604083850312156108d8576108d7610fcc565b5b60006108e685828601610869565b92505060206108f7858286016108ac565b9150509250929050565b6000806000806080858703121561091b5761091a610fcc565b5b600085013567ffffffffffffffff81111561093957610938610fc7565b5b6109458782880161087e565b9450506020610956878288016108ac565b9350506040610967878288016108ac565b9250506060610978878288016108ac565b91505092959194509250565b60006020828403121561099a57610999610fcc565b5b60006109a8848285016108ac565b91505092915050565b600080604083850312156109c8576109c7610fcc565b5b60006109d6858286016108ac565b92505060206109e7858286016108ac565b9150509250929050565b600080600060608486031215610a0a57610a09610fcc565b5b6000610a18868287016108ac565b9350506020610a29868287016108ac565b9250506040610a3a86828701610869565b9150509250925092565b610a4d81610e06565b82525050565b6000610a5e82610d06565b610a688185610d11565b9350610a78818560208601610e51565b610a8181610fd1565b840191505092915050565b6000610a99603d83610d11565b9150610aa482610fe2565b604082019050919050565b6000610abc602683610d11565b9150610ac782611031565b604082019050919050565b6000610adf601e83610d11565b9150610aea82611080565b602082019050919050565b6000610b02601383610d11565b9150610b0d826110a9565b602082019050919050565b6000610b25601483610d11565b9150610b30826110d2565b602082019050919050565b6000610b48601983610d11565b9150610b53826110fb565b602082019050919050565b610b6781610e38565b82525050565b600060c082019050610b826000830189610a44565b8181036020830152610b948188610a53565b9050610ba36040830187610b5e565b610bb06060830186610b5e565b610bbd6080830185610b5e565b610bca60a0830184610b5e565b979650505050505050565b60006020820190508181036000830152610bee81610a8c565b9050919050565b60006020820190508181036000830152610c0e81610aaf565b9050919050565b60006020820190508181036000830152610c2e81610ad2565b9050919050565b60006020820190508181036000830152610c4e81610af5565b9050919050565b60006020820190508181036000830152610c6e81610b18565b9050919050565b60006020820190508181036000830152610c8e81610b3b565b9050919050565b6000602082019050610caa6000830184610b5e565b92915050565b6000610cba610ccb565b9050610cc68282610eb6565b919050565b6000604051905090565b600067ffffffffffffffff821115610cf057610cef610f8e565b5b610cf982610fd1565b9050602081019050919050565b600081519050919050565b600082825260208201905092915050565b6000610d2d82610e38565b9150610d3883610e38565b9250827fffffffffffffffffffffffffffffffffffffffffffffffffffffffffffffffff03821115610d6d57610d6c610f30565b5b828201905092915050565b6000610d8382610e38565b9150610d8e83610e38565b9250817fffffffffffffffffffffffffffffffffffffffffffffffffffffffffffffffff0483118215151615610dc757610dc6610f30565b5b828202905092915050565b6000610ddd82610e38565b9150610de883610e38565b925082821015610dfb57610dfa610f30565b5b828203905092915050565b6000610e1182610e18565b9050919050565b600073ffffffffffffffffffffffffffffffffffffffff82169050919050565b6000819050919050565b82818337600083830152505050565b60005b83811015610e6f578082015181840152602081019050610e54565b83811115610e7e576000848401525b50505050565b60006002820490506001821680610e9c57607f821691505b60208210811415610eb057610eaf610f5f565b5b50919050565b610ebf82610fd1565b810181811067ffffffffffffffff82111715610ede57610edd610f8e565b5b80604052505050565b6000610ef282610e38565b91507fffffffffffffffffffffffffffffffffffffffffffffffffffffffffffffffff821415610f2557610f24610f30565b5b600182019050919050565b7f4e487b7100000000000000000000000000000000000000000000000000000000600052601160045260246000fd5b7f4e487b7100000000000000000000000000000000000000000000000000000000600052602260045260246000fd5b7f4e487b7100000000000000000000000000000000000000000000000000000000600052604160045260246000fd5b600080fd5b600080fd5b600080fd5b600080fd5b6000601f19601f8301169050919050565b7f796f752063616e206f7267616e697a65206576656e74206f6e6c79206966207960008201527f6f7520637265617465206d6f7265207468616e2030207469636b657473000000602082015250565b7f596f752063616e206f7267616e697a65206576656e7420666f7220667574757260008201527f6520446174650000000000000000000000000000000000000000000000000000602082015250565b7f796f7520646f206e6f74206861766520656e6f756768207469636b6574730000600082015250565b7f4574686572206973206e6f7420656e6f75676800000000000000000000000000600082015250565b7f4576656e7420646f6573206e6f74206578697374000000000000000000000000600082015250565b7f4576656e742068617320616c7265616479206f63637572656400000000000000600082015250565b61112d81610e06565b811461113857600080fd5b50565b61114481610e38565b811461114f57600080fd5b5056fea264697066735822122040e66e2997654b56cc91f26a68f36e87ab61d2bb96fbe8e16eace7a9cedc456c64736f6c63430008070033",
			"opcodes": "PUSH1 0x80 PUSH1 0x40 MSTORE CALLVALUE DUP1 ISZERO PUSH2 0x10 JUMPI PUSH1 0x0 DUP1 REVERT JUMPDEST POP PUSH2 0x1188 DUP1 PUSH2 0x20 PUSH1 0x0 CODECOPY PUSH1 0x0 RETURN INVALID PUSH1 0x80 PUSH1 0x40 MSTORE PUSH1 0x4 CALLDATASIZE LT PUSH2 0x4A JUMPI PUSH1 0x0 CALLDATALOAD PUSH1 0xE0 SHR DUP1 PUSH4 0x374AB0B EQ PUSH2 0x4F JUMPI DUP1 PUSH4 0xB791430 EQ PUSH2 0x78 JUMPI DUP1 PUSH4 0x298EC208 EQ PUSH2 0xBA JUMPI DUP1 PUSH4 0xDAE7A13C EQ PUSH2 0xD6 JUMPI DUP1 PUSH4 0xF086A09B EQ PUSH2 0x113 JUMPI JUMPDEST PUSH1 0x0 DUP1 REVERT JUMPDEST CALLVALUE DUP1 ISZERO PUSH2 0x5B JUMPI PUSH1 0x0 DUP1 REVERT JUMPDEST POP PUSH2 0x76 PUSH1 0x4 DUP1 CALLDATASIZE SUB DUP2 ADD SWAP1 PUSH2 0x71 SWAP2 SWAP1 PUSH2 0x901 JUMP JUMPDEST PUSH2 0x13C JUMP JUMPDEST STOP JUMPDEST CALLVALUE DUP1 ISZERO PUSH2 0x84 JUMPI PUSH1 0x0 DUP1 REVERT JUMPDEST POP PUSH2 0x9F PUSH1 0x4 DUP1 CALLDATASIZE SUB DUP2 ADD SWAP1 PUSH2 0x9A SWAP2 SWAP1 PUSH2 0x984 JUMP JUMPDEST PUSH2 0x2C5 JUMP JUMPDEST PUSH1 0x40 MLOAD PUSH2 0xB1 SWAP7 SWAP6 SWAP5 SWAP4 SWAP3 SWAP2 SWAP1 PUSH2 0xB6D JUMP JUMPDEST PUSH1 0x40 MLOAD DUP1 SWAP2 SUB SWAP1 RETURN JUMPDEST PUSH2 0xD4 PUSH1 0x4 DUP1 CALLDATASIZE SUB DUP2 ADD SWAP1 PUSH2 0xCF SWAP2 SWAP1 PUSH2 0x9B1 JUMP JUMPDEST PUSH2 0x3A9 JUMP JUMPDEST STOP JUMPDEST CALLVALUE DUP1 ISZERO PUSH2 0xE2 JUMPI PUSH1 0x0 DUP1 REVERT JUMPDEST POP PUSH2 0xFD PUSH1 0x4 DUP1 CALLDATASIZE SUB DUP2 ADD SWAP1 PUSH2 0xF8 SWAP2 SWAP1 PUSH2 0x8C1 JUMP JUMPDEST PUSH2 0x548 JUMP JUMPDEST PUSH1 0x40 MLOAD PUSH2 0x10A SWAP2 SWAP1 PUSH2 0xC95 JUMP JUMPDEST PUSH1 0x40 MLOAD DUP1 SWAP2 SUB SWAP1 RETURN JUMPDEST CALLVALUE DUP1 ISZERO PUSH2 0x11F JUMPI PUSH1 0x0 DUP1 REVERT JUMPDEST POP PUSH2 0x13A PUSH1 0x4 DUP1 CALLDATASIZE SUB DUP2 ADD SWAP1 PUSH2 0x135 SWAP2 SWAP1 PUSH2 0x9F1 JUMP JUMPDEST PUSH2 0x56D JUMP JUMPDEST STOP JUMPDEST TIMESTAMP DUP4 GT PUSH2 0x17E JUMPI PUSH1 0x40 MLOAD PUSH32 0x8C379A000000000000000000000000000000000000000000000000000000000 DUP2 MSTORE PUSH1 0x4 ADD PUSH2 0x175 SWAP1 PUSH2 0xBF5 JUMP JUMPDEST PUSH1 0x40 MLOAD DUP1 SWAP2 SUB SWAP1 REVERT JUMPDEST PUSH1 0x0 DUP2 GT PUSH2 0x1C1 JUMPI PUSH1 0x40 MLOAD PUSH32 0x8C379A000000000000000000000000000000000000000000000000000000000 DUP2 MSTORE PUSH1 0x4 ADD PUSH2 0x1B8 SWAP1 PUSH2 0xBD5 JUMP JUMPDEST PUSH1 0x40 MLOAD DUP1 SWAP2 SUB SWAP1 REVERT JUMPDEST PUSH1 0x40 MLOAD DUP1 PUSH1 0xC0 ADD PUSH1 0x40 MSTORE DUP1 CALLER PUSH20 0xFFFFFFFFFFFFFFFFFFFFFFFFFFFFFFFFFFFFFFFF AND DUP2 MSTORE PUSH1 0x20 ADD DUP6 DUP2 MSTORE PUSH1 0x20 ADD DUP5 DUP2 MSTORE PUSH1 0x20 ADD DUP4 DUP2 MSTORE PUSH1 0x20 ADD DUP3 DUP2 MSTORE PUSH1 0x20 ADD DUP3 DUP2 MSTORE POP PUSH1 0x0 DUP1 PUSH1 0x2 SLOAD DUP2 MSTORE PUSH1 0x20 ADD SWAP1 DUP2 MSTORE PUSH1 0x20 ADD PUSH1 0x0 KECCAK256 PUSH1 0x0 DUP3 ADD MLOAD DUP2 PUSH1 0x0 ADD PUSH1 0x0 PUSH2 0x100 EXP DUP2 SLOAD DUP2 PUSH20 0xFFFFFFFFFFFFFFFFFFFFFFFFFFFFFFFFFFFFFFFF MUL NOT AND SWAP1 DUP4 PUSH20 0xFFFFFFFFFFFFFFFFFFFFFFFFFFFFFFFFFFFFFFFF AND MUL OR SWAP1 SSTORE POP PUSH1 0x20 DUP3 ADD MLOAD DUP2 PUSH1 0x1 ADD SWAP1 DUP1 MLOAD SWAP1 PUSH1 0x20 ADD SWAP1 PUSH2 0x27B SWAP3 SWAP2 SWAP1 PUSH2 0x784 JUMP JUMPDEST POP PUSH1 0x40 DUP3 ADD MLOAD DUP2 PUSH1 0x2 ADD SSTORE PUSH1 0x60 DUP3 ADD MLOAD DUP2 PUSH1 0x3 ADD SSTORE PUSH1 0x80 DUP3 ADD MLOAD DUP2 PUSH1 0x4 ADD SSTORE PUSH1 0xA0 DUP3 ADD MLOAD DUP2 PUSH1 0x5 ADD SSTORE SWAP1 POP POP PUSH1 0x2 PUSH1 0x0 DUP2 SLOAD DUP1 SWAP3 SWAP2 SWAP1 PUSH2 0x2BA SWAP1 PUSH2 0xEE7 JUMP JUMPDEST SWAP2 SWAP1 POP SSTORE POP POP POP POP POP JUMP JUMPDEST PUSH1 0x0 PUSH1 0x20 MSTORE DUP1 PUSH1 0x0 MSTORE PUSH1 0x40 PUSH1 0x0 KECCAK256 PUSH1 0x0 SWAP2 POP SWAP1 POP DUP1 PUSH1 0x0 ADD PUSH1 0x0 SWAP1 SLOAD SWAP1 PUSH2 0x100 EXP SWAP1 DIV PUSH20 0xFFFFFFFFFFFFFFFFFFFFFFFFFFFFFFFFFFFFFFFF AND SWAP1 DUP1 PUSH1 0x1 ADD DUP1 SLOAD PUSH2 0x30E SWAP1 PUSH2 0xE84 JUMP JUMPDEST DUP1 PUSH1 0x1F ADD PUSH1 0x20 DUP1 SWAP2 DIV MUL PUSH1 0x20 ADD PUSH1 0x40 MLOAD SWAP1 DUP2 ADD PUSH1 0x40 MSTORE DUP1 SWAP3 SWAP2 SWAP1 DUP2 DUP2 MSTORE PUSH1 0x20 ADD DUP3 DUP1 SLOAD PUSH2 0x33A SWAP1 PUSH2 0xE84 JUMP JUMPDEST DUP1 ISZERO PUSH2 0x387 JUMPI DUP1 PUSH1 0x1F LT PUSH2 0x35C JUMPI PUSH2 0x100 DUP1 DUP4 SLOAD DIV MUL DUP4 MSTORE SWAP2 PUSH1 0x20 ADD SWAP2 PUSH2 0x387 JUMP JUMPDEST DUP3 ADD SWAP2 SWAP1 PUSH1 0x0 MSTORE PUSH1 0x20 PUSH1 0x0 KECCAK256 SWAP1 JUMPDEST DUP2 SLOAD DUP2 MSTORE SWAP1 PUSH1 0x1 ADD SWAP1 PUSH1 0x20 ADD DUP1 DUP4 GT PUSH2 0x36A JUMPI DUP3 SWAP1 SUB PUSH1 0x1F AND DUP3 ADD SWAP2 JUMPDEST POP POP POP POP POP SWAP1 DUP1 PUSH1 0x2 ADD SLOAD SWAP1 DUP1 PUSH1 0x3 ADD SLOAD SWAP1 DUP1 PUSH1 0x4 ADD SLOAD SWAP1 DUP1 PUSH1 0x5 ADD SLOAD SWAP1 POP DUP7 JUMP JUMPDEST PUSH1 0x0 DUP1 PUSH1 0x0 DUP5 DUP2 MSTORE PUSH1 0x20 ADD SWAP1 DUP2 MSTORE PUSH1 0x20 ADD PUSH1 0x0 KECCAK256 PUSH1 0x2 ADD SLOAD EQ ISZERO PUSH2 0x402 JUMPI PUSH1 0x40 MLOAD PUSH32 0x8C379A000000000000000000000000000000000000000000000000000000000 DUP2 MSTORE PUSH1 0x4 ADD PUSH2 0x3F9 SWAP1 PUSH2 0xC55 JUMP JUMPDEST PUSH1 0x40 MLOAD DUP1 SWAP2 SUB SWAP1 REVERT JUMPDEST TIMESTAMP PUSH1 0x0 DUP1 DUP5 DUP2 MSTORE PUSH1 0x20 ADD SWAP1 DUP2 MSTORE PUSH1 0x20 ADD PUSH1 0x0 KECCAK256 PUSH1 0x2 ADD SLOAD LT ISZERO PUSH2 0x45A JUMPI PUSH1 0x40 MLOAD PUSH32 0x8C379A000000000000000000000000000000000000000000000000000000000 DUP2 MSTORE PUSH1 0x4 ADD PUSH2 0x451 SWAP1 PUSH2 0xC75 JUMP JUMPDEST PUSH1 0x40 MLOAD DUP1 SWAP2 SUB SWAP1 REVERT JUMPDEST PUSH1 0x0 DUP1 PUSH1 0x0 DUP5 DUP2 MSTORE PUSH1 0x20 ADD SWAP1 DUP2 MSTORE PUSH1 0x20 ADD PUSH1 0x0 KECCAK256 SWAP1 POP DUP2 DUP2 PUSH1 0x3 ADD SLOAD PUSH2 0x480 SWAP2 SWAP1 PUSH2 0xD78 JUMP JUMPDEST CALLVALUE EQ PUSH2 0x4C1 JUMPI PUSH1 0x40 MLOAD PUSH32 0x8C379A000000000000000000000000000000000000000000000000000000000 DUP2 MSTORE PUSH1 0x4 ADD PUSH2 0x4B8 SWAP1 PUSH2 0xC35 JUMP JUMPDEST PUSH1 0x40 MLOAD DUP1 SWAP2 SUB SWAP1 REVERT JUMPDEST DUP2 DUP2 PUSH1 0x5 ADD PUSH1 0x0 DUP3 DUP3 SLOAD PUSH2 0x4D5 SWAP2 SWAP1 PUSH2 0xDD2 JUMP JUMPDEST SWAP3 POP POP DUP2 SWAP1 SSTORE POP DUP2 PUSH1 0x1 PUSH1 0x0 CALLER PUSH20 0xFFFFFFFFFFFFFFFFFFFFFFFFFFFFFFFFFFFFFFFF AND PUSH20 0xFFFFFFFFFFFFFFFFFFFFFFFFFFFFFFFFFFFFFFFF AND DUP2 MSTORE PUSH1 0x20 ADD SWAP1 DUP2 MSTORE PUSH1 0x20 ADD PUSH1 0x0 KECCAK256 PUSH1 0x0 DUP6 DUP2 MSTORE PUSH1 0x20 ADD SWAP1 DUP2 MSTORE PUSH1 0x20 ADD PUSH1 0x0 KECCAK256 PUSH1 0x0 DUP3 DUP3 SLOAD PUSH2 0x53C SWAP2 SWAP1 PUSH2 0xD22 JUMP JUMPDEST SWAP3 POP POP DUP2 SWAP1 SSTORE POP POP POP POP JUMP JUMPDEST PUSH1 0x1 PUSH1 0x20 MSTORE DUP2 PUSH1 0x0 MSTORE PUSH1 0x40 PUSH1 0x0 KECCAK256 PUSH1 0x20 MSTORE DUP1 PUSH1 0x0 MSTORE PUSH1 0x40 PUSH1 0x0 KECCAK256 PUSH1 0x0 SWAP2 POP SWAP2 POP POP SLOAD DUP2 JUMP JUMPDEST PUSH1 0x0 DUP1 PUSH1 0x0 DUP6 DUP2 MSTORE PUSH1 0x20 ADD SWAP1 DUP2 MSTORE PUSH1 0x20 ADD PUSH1 0x0 KECCAK256 PUSH1 0x2 ADD SLOAD EQ ISZERO PUSH2 0x5C6 JUMPI PUSH1 0x40 MLOAD PUSH32 0x8C379A000000000000000000000000000000000000000000000000000000000 DUP2 MSTORE PUSH1 0x4 ADD PUSH2 0x5BD SWAP1 PUSH2 0xC55 JUMP JUMPDEST PUSH1 0x40 MLOAD DUP1 SWAP2 SUB SWAP1 REVERT JUMPDEST TIMESTAMP PUSH1 0x0 DUP1 DUP6 DUP2 MSTORE PUSH1 0x20 ADD SWAP1 DUP2 MSTORE PUSH1 0x20 ADD PUSH1 0x0 KECCAK256 PUSH1 0x2 ADD SLOAD LT ISZERO PUSH2 0x61E JUMPI PUSH1 0x40 MLOAD PUSH32 0x8C379A000000000000000000000000000000000000000000000000000000000 DUP2 MSTORE PUSH1 0x4 ADD PUSH2 0x615 SWAP1 PUSH2 0xC75 JUMP JUMPDEST PUSH1 0x40 MLOAD DUP1 SWAP2 SUB SWAP1 REVERT JUMPDEST DUP2 PUSH1 0x1 PUSH1 0x0 CALLER PUSH20 0xFFFFFFFFFFFFFFFFFFFFFFFFFFFFFFFFFFFFFFFF AND PUSH20 0xFFFFFFFFFFFFFFFFFFFFFFFFFFFFFFFFFFFFFFFF AND DUP2 MSTORE PUSH1 0x20 ADD SWAP1 DUP2 MSTORE PUSH1 0x20 ADD PUSH1 0x0 KECCAK256 PUSH1 0x0 DUP6 DUP2 MSTORE PUSH1 0x20 ADD SWAP1 DUP2 MSTORE PUSH1 0x20 ADD PUSH1 0x0 KECCAK256 SLOAD LT ISZERO PUSH2 0x6B1 JUMPI PUSH1 0x40 MLOAD PUSH32 0x8C379A000000000000000000000000000000000000000000000000000000000 DUP2 MSTORE PUSH1 0x4 ADD PUSH2 0x6A8 SWAP1 PUSH2 0xC15 JUMP JUMPDEST PUSH1 0x40 MLOAD DUP1 SWAP2 SUB SWAP1 REVERT JUMPDEST DUP2 PUSH1 0x1 PUSH1 0x0 CALLER PUSH20 0xFFFFFFFFFFFFFFFFFFFFFFFFFFFFFFFFFFFFFFFF AND PUSH20 0xFFFFFFFFFFFFFFFFFFFFFFFFFFFFFFFFFFFFFFFF AND DUP2 MSTORE PUSH1 0x20 ADD SWAP1 DUP2 MSTORE PUSH1 0x20 ADD PUSH1 0x0 KECCAK256 PUSH1 0x0 DUP6 DUP2 MSTORE PUSH1 0x20 ADD SWAP1 DUP2 MSTORE PUSH1 0x20 ADD PUSH1 0x0 KECCAK256 PUSH1 0x0 DUP3 DUP3 SLOAD PUSH2 0x711 SWAP2 SWAP1 PUSH2 0xDD2 JUMP JUMPDEST SWAP3 POP POP DUP2 SWAP1 SSTORE POP DUP2 PUSH1 0x1 PUSH1 0x0 DUP4 PUSH20 0xFFFFFFFFFFFFFFFFFFFFFFFFFFFFFFFFFFFFFFFF AND PUSH20 0xFFFFFFFFFFFFFFFFFFFFFFFFFFFFFFFFFFFFFFFF AND DUP2 MSTORE PUSH1 0x20 ADD SWAP1 DUP2 MSTORE PUSH1 0x20 ADD PUSH1 0x0 KECCAK256 PUSH1 0x0 DUP6 DUP2 MSTORE PUSH1 0x20 ADD SWAP1 DUP2 MSTORE PUSH1 0x20 ADD PUSH1 0x0 KECCAK256 PUSH1 0x0 DUP3 DUP3 SLOAD PUSH2 0x778 SWAP2 SWAP1 PUSH2 0xD22 JUMP JUMPDEST SWAP3 POP POP DUP2 SWAP1 SSTORE POP POP POP POP JUMP JUMPDEST DUP3 DUP1 SLOAD PUSH2 0x790 SWAP1 PUSH2 0xE84 JUMP JUMPDEST SWAP1 PUSH1 0x0 MSTORE PUSH1 0x20 PUSH1 0x0 KECCAK256 SWAP1 PUSH1 0x1F ADD PUSH1 0x20 SWAP1 DIV DUP2 ADD SWAP3 DUP3 PUSH2 0x7B2 JUMPI PUSH1 0x0 DUP6 SSTORE PUSH2 0x7F9 JUMP JUMPDEST DUP3 PUSH1 0x1F LT PUSH2 0x7CB JUMPI DUP1 MLOAD PUSH1 0xFF NOT AND DUP4 DUP1 ADD OR DUP6 SSTORE PUSH2 0x7F9 JUMP JUMPDEST DUP3 DUP1 ADD PUSH1 0x1 ADD DUP6 SSTORE DUP3 ISZERO PUSH2 0x7F9 JUMPI SWAP2 DUP3 ADD JUMPDEST DUP3 DUP2 GT ISZERO PUSH2 0x7F8 JUMPI DUP3 MLOAD DUP3 SSTORE SWAP2 PUSH1 0x20 ADD SWAP2 SWAP1 PUSH1 0x1 ADD SWAP1 PUSH2 0x7DD JUMP JUMPDEST JUMPDEST POP SWAP1 POP PUSH2 0x806 SWAP2 SWAP1 PUSH2 0x80A JUMP JUMPDEST POP SWAP1 JUMP JUMPDEST JUMPDEST DUP1 DUP3 GT ISZERO PUSH2 0x823 JUMPI PUSH1 0x0 DUP2 PUSH1 0x0 SWAP1 SSTORE POP PUSH1 0x1 ADD PUSH2 0x80B JUMP JUMPDEST POP SWAP1 JUMP JUMPDEST PUSH1 0x0 PUSH2 0x83A PUSH2 0x835 DUP5 PUSH2 0xCD5 JUMP JUMPDEST PUSH2 0xCB0 JUMP JUMPDEST SWAP1 POP DUP3 DUP2 MSTORE PUSH1 0x20 DUP2 ADD DUP5 DUP5 DUP5 ADD GT ISZERO PUSH2 0x856 JUMPI PUSH2 0x855 PUSH2 0xFC2 JUMP JUMPDEST JUMPDEST PUSH2 0x861 DUP5 DUP3 DUP6 PUSH2 0xE42 JUMP JUMPDEST POP SWAP4 SWAP3 POP POP POP JUMP JUMPDEST PUSH1 0x0 DUP2 CALLDATALOAD SWAP1 POP PUSH2 0x878 DUP2 PUSH2 0x1124 JUMP JUMPDEST SWAP3 SWAP2 POP POP JUMP JUMPDEST PUSH1 0x0 DUP3 PUSH1 0x1F DUP4 ADD SLT PUSH2 0x893 JUMPI PUSH2 0x892 PUSH2 0xFBD JUMP JUMPDEST JUMPDEST DUP2 CALLDATALOAD PUSH2 0x8A3 DUP5 DUP3 PUSH1 0x20 DUP7 ADD PUSH2 0x827 JUMP JUMPDEST SWAP2 POP POP SWAP3 SWAP2 POP POP JUMP JUMPDEST PUSH1 0x0 DUP2 CALLDATALOAD SWAP1 POP PUSH2 0x8BB DUP2 PUSH2 0x113B JUMP JUMPDEST SWAP3 SWAP2 POP POP JUMP JUMPDEST PUSH1 0x0 DUP1 PUSH1 0x40 DUP4 DUP6 SUB SLT ISZERO PUSH2 0x8D8 JUMPI PUSH2 0x8D7 PUSH2 0xFCC JUMP JUMPDEST JUMPDEST PUSH1 0x0 PUSH2 0x8E6 DUP6 DUP3 DUP7 ADD PUSH2 0x869 JUMP JUMPDEST SWAP3 POP POP PUSH1 0x20 PUSH2 0x8F7 DUP6 DUP3 DUP7 ADD PUSH2 0x8AC JUMP JUMPDEST SWAP2 POP POP SWAP3 POP SWAP3 SWAP1 POP JUMP JUMPDEST PUSH1 0x0 DUP1 PUSH1 0x0 DUP1 PUSH1 0x80 DUP6 DUP8 SUB SLT ISZERO PUSH2 0x91B JUMPI PUSH2 0x91A PUSH2 0xFCC JUMP JUMPDEST JUMPDEST PUSH1 0x0 DUP6 ADD CALLDATALOAD PUSH8 0xFFFFFFFFFFFFFFFF DUP2 GT ISZERO PUSH2 0x939 JUMPI PUSH2 0x938 PUSH2 0xFC7 JUMP JUMPDEST JUMPDEST PUSH2 0x945 DUP8 DUP3 DUP9 ADD PUSH2 0x87E JUMP JUMPDEST SWAP5 POP POP PUSH1 0x20 PUSH2 0x956 DUP8 DUP3 DUP9 ADD PUSH2 0x8AC JUMP JUMPDEST SWAP4 POP POP PUSH1 0x40 PUSH2 0x967 DUP8 DUP3 DUP9 ADD PUSH2 0x8AC JUMP JUMPDEST SWAP3 POP POP PUSH1 0x60 PUSH2 0x978 DUP8 DUP3 DUP9 ADD PUSH2 0x8AC JUMP JUMPDEST SWAP2 POP POP SWAP3 SWAP6 SWAP2 SWAP5 POP SWAP3 POP JUMP JUMPDEST PUSH1 0x0 PUSH1 0x20 DUP3 DUP5 SUB SLT ISZERO PUSH2 0x99A JUMPI PUSH2 0x999 PUSH2 0xFCC JUMP JUMPDEST JUMPDEST PUSH1 0x0 PUSH2 0x9A8 DUP5 DUP3 DUP6 ADD PUSH2 0x8AC JUMP JUMPDEST SWAP2 POP POP SWAP3 SWAP2 POP POP JUMP JUMPDEST PUSH1 0x0 DUP1 PUSH1 0x40 DUP4 DUP6 SUB SLT ISZERO PUSH2 0x9C8 JUMPI PUSH2 0x9C7 PUSH2 0xFCC JUMP JUMPDEST JUMPDEST PUSH1 0x0 PUSH2 0x9D6 DUP6 DUP3 DUP7 ADD PUSH2 0x8AC JUMP JUMPDEST SWAP3 POP POP PUSH1 0x20 PUSH2 0x9E7 DUP6 DUP3 DUP7 ADD PUSH2 0x8AC JUMP JUMPDEST SWAP2 POP POP SWAP3 POP SWAP3 SWAP1 POP JUMP JUMPDEST PUSH1 0x0 DUP1 PUSH1 0x0 PUSH1 0x60 DUP5 DUP7 SUB SLT ISZERO PUSH2 0xA0A JUMPI PUSH2 0xA09 PUSH2 0xFCC JUMP JUMPDEST JUMPDEST PUSH1 0x0 PUSH2 0xA18 DUP7 DUP3 DUP8 ADD PUSH2 0x8AC JUMP JUMPDEST SWAP4 POP POP PUSH1 0x20 PUSH2 0xA29 DUP7 DUP3 DUP8 ADD PUSH2 0x8AC JUMP JUMPDEST SWAP3 POP POP PUSH1 0x40 PUSH2 0xA3A DUP7 DUP3 DUP8 ADD PUSH2 0x869 JUMP JUMPDEST SWAP2 POP POP SWAP3 POP SWAP3 POP SWAP3 JUMP JUMPDEST PUSH2 0xA4D DUP2 PUSH2 0xE06 JUMP JUMPDEST DUP3 MSTORE POP POP JUMP JUMPDEST PUSH1 0x0 PUSH2 0xA5E DUP3 PUSH2 0xD06 JUMP JUMPDEST PUSH2 0xA68 DUP2 DUP6 PUSH2 0xD11 JUMP JUMPDEST SWAP4 POP PUSH2 0xA78 DUP2 DUP6 PUSH1 0x20 DUP7 ADD PUSH2 0xE51 JUMP JUMPDEST PUSH2 0xA81 DUP2 PUSH2 0xFD1 JUMP JUMPDEST DUP5 ADD SWAP2 POP POP SWAP3 SWAP2 POP POP JUMP JUMPDEST PUSH1 0x0 PUSH2 0xA99 PUSH1 0x3D DUP4 PUSH2 0xD11 JUMP JUMPDEST SWAP2 POP PUSH2 0xAA4 DUP3 PUSH2 0xFE2 JUMP JUMPDEST PUSH1 0x40 DUP3 ADD SWAP1 POP SWAP2 SWAP1 POP JUMP JUMPDEST PUSH1 0x0 PUSH2 0xABC PUSH1 0x26 DUP4 PUSH2 0xD11 JUMP JUMPDEST SWAP2 POP PUSH2 0xAC7 DUP3 PUSH2 0x1031 JUMP JUMPDEST PUSH1 0x40 DUP3 ADD SWAP1 POP SWAP2 SWAP1 POP JUMP JUMPDEST PUSH1 0x0 PUSH2 0xADF PUSH1 0x1E DUP4 PUSH2 0xD11 JUMP JUMPDEST SWAP2 POP PUSH2 0xAEA DUP3 PUSH2 0x1080 JUMP JUMPDEST PUSH1 0x20 DUP3 ADD SWAP1 POP SWAP2 SWAP1 POP JUMP JUMPDEST PUSH1 0x0 PUSH2 0xB02 PUSH1 0x13 DUP4 PUSH2 0xD11 JUMP JUMPDEST SWAP2 POP PUSH2 0xB0D DUP3 PUSH2 0x10A9 JUMP JUMPDEST PUSH1 0x20 DUP3 ADD SWAP1 POP SWAP2 SWAP1 POP JUMP JUMPDEST PUSH1 0x0 PUSH2 0xB25 PUSH1 0x14 DUP4 PUSH2 0xD11 JUMP JUMPDEST SWAP2 POP PUSH2 0xB30 DUP3 PUSH2 0x10D2 JUMP JUMPDEST PUSH1 0x20 DUP3 ADD SWAP1 POP SWAP2 SWAP1 POP JUMP JUMPDEST PUSH1 0x0 PUSH2 0xB48 PUSH1 0x19 DUP4 PUSH2 0xD11 JUMP JUMPDEST SWAP2 POP PUSH2 0xB53 DUP3 PUSH2 0x10FB JUMP JUMPDEST PUSH1 0x20 DUP3 ADD SWAP1 POP SWAP2 SWAP1 POP JUMP JUMPDEST PUSH2 0xB67 DUP2 PUSH2 0xE38 JUMP JUMPDEST DUP3 MSTORE POP POP JUMP JUMPDEST PUSH1 0x0 PUSH1 0xC0 DUP3 ADD SWAP1 POP PUSH2 0xB82 PUSH1 0x0 DUP4 ADD DUP10 PUSH2 0xA44 JUMP JUMPDEST DUP2 DUP2 SUB PUSH1 0x20 DUP4 ADD MSTORE PUSH2 0xB94 DUP2 DUP9 PUSH2 0xA53 JUMP JUMPDEST SWAP1 POP PUSH2 0xBA3 PUSH1 0x40 DUP4 ADD DUP8 PUSH2 0xB5E JUMP JUMPDEST PUSH2 0xBB0 PUSH1 0x60 DUP4 ADD DUP7 PUSH2 0xB5E JUMP JUMPDEST PUSH2 0xBBD PUSH1 0x80 DUP4 ADD DUP6 PUSH2 0xB5E JUMP JUMPDEST PUSH2 0xBCA PUSH1 0xA0 DUP4 ADD DUP5 PUSH2 0xB5E JUMP JUMPDEST SWAP8 SWAP7 POP POP POP POP POP POP POP JUMP JUMPDEST PUSH1 0x0 PUSH1 0x20 DUP3 ADD SWAP1 POP DUP2 DUP2 SUB PUSH1 0x0 DUP4 ADD MSTORE PUSH2 0xBEE DUP2 PUSH2 0xA8C JUMP JUMPDEST SWAP1 POP SWAP2 SWAP1 POP JUMP JUMPDEST PUSH1 0x0 PUSH1 0x20 DUP3 ADD SWAP1 POP DUP2 DUP2 SUB PUSH1 0x0 DUP4 ADD MSTORE PUSH2 0xC0E DUP2 PUSH2 0xAAF JUMP JUMPDEST SWAP1 POP SWAP2 SWAP1 POP JUMP JUMPDEST PUSH1 0x0 PUSH1 0x20 DUP3 ADD SWAP1 POP DUP2 DUP2 SUB PUSH1 0x0 DUP4 ADD MSTORE PUSH2 0xC2E DUP2 PUSH2 0xAD2 JUMP JUMPDEST SWAP1 POP SWAP2 SWAP1 POP JUMP JUMPDEST PUSH1 0x0 PUSH1 0x20 DUP3 ADD SWAP1 POP DUP2 DUP2 SUB PUSH1 0x0 DUP4 ADD MSTORE PUSH2 0xC4E DUP2 PUSH2 0xAF5 JUMP JUMPDEST SWAP1 POP SWAP2 SWAP1 POP JUMP JUMPDEST PUSH1 0x0 PUSH1 0x20 DUP3 ADD SWAP1 POP DUP2 DUP2 SUB PUSH1 0x0 DUP4 ADD MSTORE PUSH2 0xC6E DUP2 PUSH2 0xB18 JUMP JUMPDEST SWAP1 POP SWAP2 SWAP1 POP JUMP JUMPDEST PUSH1 0x0 PUSH1 0x20 DUP3 ADD SWAP1 POP DUP2 DUP2 SUB PUSH1 0x0 DUP4 ADD MSTORE PUSH2 0xC8E DUP2 PUSH2 0xB3B JUMP JUMPDEST SWAP1 POP SWAP2 SWAP1 POP JUMP JUMPDEST PUSH1 0x0 PUSH1 0x20 DUP3 ADD SWAP1 POP PUSH2 0xCAA PUSH1 0x0 DUP4 ADD DUP5 PUSH2 0xB5E JUMP JUMPDEST SWAP3 SWAP2 POP POP JUMP JUMPDEST PUSH1 0x0 PUSH2 0xCBA PUSH2 0xCCB JUMP JUMPDEST SWAP1 POP PUSH2 0xCC6 DUP3 DUP3 PUSH2 0xEB6 JUMP JUMPDEST SWAP2 SWAP1 POP JUMP JUMPDEST PUSH1 0x0 PUSH1 0x40 MLOAD SWAP1 POP SWAP1 JUMP JUMPDEST PUSH1 0x0 PUSH8 0xFFFFFFFFFFFFFFFF DUP3 GT ISZERO PUSH2 0xCF0 JUMPI PUSH2 0xCEF PUSH2 0xF8E JUMP JUMPDEST JUMPDEST PUSH2 0xCF9 DUP3 PUSH2 0xFD1 JUMP JUMPDEST SWAP1 POP PUSH1 0x20 DUP2 ADD SWAP1 POP SWAP2 SWAP1 POP JUMP JUMPDEST PUSH1 0x0 DUP2 MLOAD SWAP1 POP SWAP2 SWAP1 POP JUMP JUMPDEST PUSH1 0x0 DUP3 DUP3 MSTORE PUSH1 0x20 DUP3 ADD SWAP1 POP SWAP3 SWAP2 POP POP JUMP JUMPDEST PUSH1 0x0 PUSH2 0xD2D DUP3 PUSH2 0xE38 JUMP JUMPDEST SWAP2 POP PUSH2 0xD38 DUP4 PUSH2 0xE38 JUMP JUMPDEST SWAP3 POP DUP3 PUSH32 0xFFFFFFFFFFFFFFFFFFFFFFFFFFFFFFFFFFFFFFFFFFFFFFFFFFFFFFFFFFFFFFFF SUB DUP3 GT ISZERO PUSH2 0xD6D JUMPI PUSH2 0xD6C PUSH2 0xF30 JUMP JUMPDEST JUMPDEST DUP3 DUP3 ADD SWAP1 POP SWAP3 SWAP2 POP POP JUMP JUMPDEST PUSH1 0x0 PUSH2 0xD83 DUP3 PUSH2 0xE38 JUMP JUMPDEST SWAP2 POP PUSH2 0xD8E DUP4 PUSH2 0xE38 JUMP JUMPDEST SWAP3 POP DUP2 PUSH32 0xFFFFFFFFFFFFFFFFFFFFFFFFFFFFFFFFFFFFFFFFFFFFFFFFFFFFFFFFFFFFFFFF DIV DUP4 GT DUP3 ISZERO ISZERO AND ISZERO PUSH2 0xDC7 JUMPI PUSH2 0xDC6 PUSH2 0xF30 JUMP JUMPDEST JUMPDEST DUP3 DUP3 MUL SWAP1 POP SWAP3 SWAP2 POP POP JUMP JUMPDEST PUSH1 0x0 PUSH2 0xDDD DUP3 PUSH2 0xE38 JUMP JUMPDEST SWAP2 POP PUSH2 0xDE8 DUP4 PUSH2 0xE38 JUMP JUMPDEST SWAP3 POP DUP3 DUP3 LT ISZERO PUSH2 0xDFB JUMPI PUSH2 0xDFA PUSH2 0xF30 JUMP JUMPDEST JUMPDEST DUP3 DUP3 SUB SWAP1 POP SWAP3 SWAP2 POP POP JUMP JUMPDEST PUSH1 0x0 PUSH2 0xE11 DUP3 PUSH2 0xE18 JUMP JUMPDEST SWAP1 POP SWAP2 SWAP1 POP JUMP JUMPDEST PUSH1 0x0 PUSH20 0xFFFFFFFFFFFFFFFFFFFFFFFFFFFFFFFFFFFFFFFF DUP3 AND SWAP1 POP SWAP2 SWAP1 POP JUMP JUMPDEST PUSH1 0x0 DUP2 SWAP1 POP SWAP2 SWAP1 POP JUMP JUMPDEST DUP3 DUP2 DUP4 CALLDATACOPY PUSH1 0x0 DUP4 DUP4 ADD MSTORE POP POP POP JUMP JUMPDEST PUSH1 0x0 JUMPDEST DUP4 DUP2 LT ISZERO PUSH2 0xE6F JUMPI DUP1 DUP3 ADD MLOAD DUP2 DUP5 ADD MSTORE PUSH1 0x20 DUP2 ADD SWAP1 POP PUSH2 0xE54 JUMP JUMPDEST DUP4 DUP2 GT ISZERO PUSH2 0xE7E JUMPI PUSH1 0x0 DUP5 DUP5 ADD MSTORE JUMPDEST POP POP POP POP JUMP JUMPDEST PUSH1 0x0 PUSH1 0x2 DUP3 DIV SWAP1 POP PUSH1 0x1 DUP3 AND DUP1 PUSH2 0xE9C JUMPI PUSH1 0x7F DUP3 AND SWAP2 POP JUMPDEST PUSH1 0x20 DUP3 LT DUP2 EQ ISZERO PUSH2 0xEB0 JUMPI PUSH2 0xEAF PUSH2 0xF5F JUMP JUMPDEST JUMPDEST POP SWAP2 SWAP1 POP JUMP JUMPDEST PUSH2 0xEBF DUP3 PUSH2 0xFD1 JUMP JUMPDEST DUP2 ADD DUP2 DUP2 LT PUSH8 0xFFFFFFFFFFFFFFFF DUP3 GT OR ISZERO PUSH2 0xEDE JUMPI PUSH2 0xEDD PUSH2 0xF8E JUMP JUMPDEST JUMPDEST DUP1 PUSH1 0x40 MSTORE POP POP POP JUMP JUMPDEST PUSH1 0x0 PUSH2 0xEF2 DUP3 PUSH2 0xE38 JUMP JUMPDEST SWAP2 POP PUSH32 0xFFFFFFFFFFFFFFFFFFFFFFFFFFFFFFFFFFFFFFFFFFFFFFFFFFFFFFFFFFFFFFFF DUP3 EQ ISZERO PUSH2 0xF25 JUMPI PUSH2 0xF24 PUSH2 0xF30 JUMP JUMPDEST JUMPDEST PUSH1 0x1 DUP3 ADD SWAP1 POP SWAP2 SWAP1 POP JUMP JUMPDEST PUSH32 0x4E487B7100000000000000000000000000000000000000000000000000000000 PUSH1 0x0 MSTORE PUSH1 0x11 PUSH1 0x4 MSTORE PUSH1 0x24 PUSH1 0x0 REVERT JUMPDEST PUSH32 0x4E487B7100000000000000000000000000000000000000000000000000000000 PUSH1 0x0 MSTORE PUSH1 0x22 PUSH1 0x4 MSTORE PUSH1 0x24 PUSH1 0x0 REVERT JUMPDEST PUSH32 0x4E487B7100000000000000000000000000000000000000000000000000000000 PUSH1 0x0 MSTORE PUSH1 0x41 PUSH1 0x4 MSTORE PUSH1 0x24 PUSH1 0x0 REVERT JUMPDEST PUSH1 0x0 DUP1 REVERT JUMPDEST PUSH1 0x0 DUP1 REVERT JUMPDEST PUSH1 0x0 DUP1 REVERT JUMPDEST PUSH1 0x0 DUP1 REVERT JUMPDEST PUSH1 0x0 PUSH1 0x1F NOT PUSH1 0x1F DUP4 ADD AND SWAP1 POP SWAP2 SWAP1 POP JUMP JUMPDEST PUSH32 0x796F752063616E206F7267616E697A65206576656E74206F6E6C792069662079 PUSH1 0x0 DUP3 ADD MSTORE PUSH32 0x6F7520637265617465206D6F7265207468616E2030207469636B657473000000 PUSH1 0x20 DUP3 ADD MSTORE POP JUMP JUMPDEST PUSH32 0x596F752063616E206F7267616E697A65206576656E7420666F72206675747572 PUSH1 0x0 DUP3 ADD MSTORE PUSH32 0x6520446174650000000000000000000000000000000000000000000000000000 PUSH1 0x20 DUP3 ADD MSTORE POP JUMP JUMPDEST PUSH32 0x796F7520646F206E6F74206861766520656E6F756768207469636B6574730000 PUSH1 0x0 DUP3 ADD MSTORE POP JUMP JUMPDEST PUSH32 0x4574686572206973206E6F7420656E6F75676800000000000000000000000000 PUSH1 0x0 DUP3 ADD MSTORE POP JUMP JUMPDEST PUSH32 0x4576656E7420646F6573206E6F74206578697374000000000000000000000000 PUSH1 0x0 DUP3 ADD MSTORE POP JUMP JUMPDEST PUSH32 0x4576656E742068617320616C7265616479206F63637572656400000000000000 PUSH1 0x0 DUP3 ADD MSTORE POP JUMP JUMPDEST PUSH2 0x112D DUP2 PUSH2 0xE06 JUMP JUMPDEST DUP2 EQ PUSH2 0x1138 JUMPI PUSH1 0x0 DUP1 REVERT JUMPDEST POP JUMP JUMPDEST PUSH2 0x1144 DUP2 PUSH2 0xE38 JUMP JUMPDEST DUP2 EQ PUSH2 0x114F JUMPI PUSH1 0x0 DUP1 REVERT JUMPDEST POP JUMP INVALID LOG2 PUSH5 0x6970667358 0x22 SLT KECCAK256 BLOCKHASH 0xE6 PUSH15 0x2997654B56CC91F26A68F36E87AB61 0xD2 0xBB SWAP7 0xFB 0xE8 0xE1 PUSH15 0xACE7A9CEDC456C64736F6C63430008 SMOD STOP CALLER "
		},
		"gasEstimates": {
			"creation": {
				"codeDepositCost": "897600",
				"executionCost": "935",
				"totalCost": "898535"
			},
			"external": {
				"buyTicket(uint256,uint256)": "infinite",
				"createEvent(string,uint256,uint256,uint256)": "infinite",
				"events(uint256)": "infinite",
				"tickets(address,uint256)": "infinite",
				"transferTicket(uint256,uint256,address)": "infinite"
			}
		},
		"methodIdentifiers": {
			"buyTicket(uint256,uint256)": "298ec208",
			"createEvent(string,uint256,uint256,uint256)": "0374ab0b",
			"events(uint256)": "0b791430",
			"tickets(address,uint256)": "dae7a13c",
			"transferTicket(uint256,uint256,address)": "f086a09b"
		}
	},
	"abi": [
		{
			"inputs": [
				{
					"internalType": "uint256",
					"name": "id",
					"type": "uint256"
				},
				{
					"internalType": "uint256",
					"name": "quantity",
					"type": "uint256"
				}
			],
			"name": "buyTicket",
			"outputs": [],
			"stateMutability": "payable",
			"type": "function"
		},
		{
			"inputs": [
				{
					"internalType": "string",
					"name": "name",
					"type": "string"
				},
				{
					"internalType": "uint256",
					"name": "date",
					"type": "uint256"
				},
				{
					"internalType": "uint256",
					"name": "price",
					"type": "uint256"
				},
				{
					"internalType": "uint256",
					"name": "ticketCount",
					"type": "uint256"
				}
			],
			"name": "createEvent",
			"outputs": [],
			"stateMutability": "nonpayable",
			"type": "function"
		},
		{
			"inputs": [
				{
					"internalType": "uint256",
					"name": "",
					"type": "uint256"
				}
			],
			"name": "events",
			"outputs": [
				{
					"internalType": "address",
					"name": "organizer",
					"type": "address"
				},
				{
					"internalType": "string",
					"name": "name",
					"type": "string"
				},
				{
					"internalType": "uint256",
					"name": "date",
					"type": "uint256"
				},
				{
					"internalType": "uint256",
					"name": "price",
					"type": "uint256"
				},
				{
					"internalType": "uint256",
					"name": "ticketCount",
					"type": "uint256"
				},
				{
					"internalType": "uint256",
					"name": "ticketRemain",
					"type": "uint256"
				}
			],
			"stateMutability": "view",
			"type": "function"
		},
		{
			"inputs": [
				{
					"internalType": "address",
					"name": "",
					"type": "address"
				},
				{
					"internalType": "uint256",
					"name": "",
					"type": "uint256"
				}
			],
			"name": "tickets",
			"outputs": [
				{
					"internalType": "uint256",
					"name": "",
					"type": "uint256"
				}
			],
			"stateMutability": "view",
			"type": "function"
		},
		{
			"inputs": [
				{
					"internalType": "uint256",
					"name": "id",
					"type": "uint256"
				},
				{
					"internalType": "uint256",
					"name": "quantity",
					"type": "uint256"
				},
				{
					"internalType": "address",
					"name": "toWhom",
					"type": "address"
				}
			],
			"name": "transferTicket",
			"outputs": [],
			"stateMutability": "nonpayable",
			"type": "function"
		}
	]
}